{
  "address": "0x66c1Cb78DA18C3b6cF463421Eefe3757e3aBAa1c",
  "abi": [
    {
      "inputs": [
        {
          "internalType": "address",
          "name": "baseCurrency",
          "type": "address"
        },
        {
          "internalType": "uint256",
          "name": "_baseCurrencyUnit",
          "type": "uint256"
        }
      ],
      "stateMutability": "nonpayable",
      "type": "constructor"
    },
    {
      "inputs": [],
      "name": "AccessControlBadConfirmation",
      "type": "error"
    },
    {
      "inputs": [
        {
          "internalType": "address",
          "name": "account",
          "type": "address"
        },
        {
          "internalType": "bytes32",
          "name": "neededRole",
          "type": "bytes32"
        }
      ],
      "name": "AccessControlUnauthorizedAccount",
      "type": "error"
    },
    {
      "inputs": [
        {
          "internalType": "address",
          "name": "asset",
          "type": "address"
        }
      ],
      "name": "OracleNotSet",
      "type": "error"
    },
    {
      "inputs": [],
      "name": "OraclePriceError",
      "type": "error"
    },
    {
      "anonymous": false,
      "inputs": [
        {
          "indexed": true,
          "internalType": "address",
          "name": "asset",
          "type": "address"
        }
      ],
      "name": "OracleRemoved",
      "type": "event"
    },
    {
      "anonymous": false,
      "inputs": [
        {
          "indexed": true,
          "internalType": "address",
          "name": "asset",
          "type": "address"
        },
        {
          "indexed": true,
          "internalType": "address",
          "name": "oracle",
          "type": "address"
        }
      ],
      "name": "OracleSet",
      "type": "event"
    },
    {
      "anonymous": false,
      "inputs": [
        {
          "indexed": true,
          "internalType": "bytes32",
          "name": "role",
          "type": "bytes32"
        },
        {
          "indexed": true,
          "internalType": "bytes32",
          "name": "previousAdminRole",
          "type": "bytes32"
        },
        {
          "indexed": true,
          "internalType": "bytes32",
          "name": "newAdminRole",
          "type": "bytes32"
        }
      ],
      "name": "RoleAdminChanged",
      "type": "event"
    },
    {
      "anonymous": false,
      "inputs": [
        {
          "indexed": true,
          "internalType": "bytes32",
          "name": "role",
          "type": "bytes32"
        },
        {
          "indexed": true,
          "internalType": "address",
          "name": "account",
          "type": "address"
        },
        {
          "indexed": true,
          "internalType": "address",
          "name": "sender",
          "type": "address"
        }
      ],
      "name": "RoleGranted",
      "type": "event"
    },
    {
      "anonymous": false,
      "inputs": [
        {
          "indexed": true,
          "internalType": "bytes32",
          "name": "role",
          "type": "bytes32"
        },
        {
          "indexed": true,
          "internalType": "address",
          "name": "account",
          "type": "address"
        },
        {
          "indexed": true,
          "internalType": "address",
          "name": "sender",
          "type": "address"
        }
      ],
      "name": "RoleRevoked",
      "type": "event"
    },
    {
      "inputs": [],
      "name": "BASE_CURRENCY",
      "outputs": [
        {
          "internalType": "address",
          "name": "",
          "type": "address"
        }
      ],
      "stateMutability": "view",
      "type": "function"
    },
    {
      "inputs": [],
      "name": "BASE_CURRENCY_UNIT",
      "outputs": [
        {
          "internalType": "uint256",
          "name": "",
          "type": "uint256"
        }
      ],
      "stateMutability": "view",
      "type": "function"
    },
    {
      "inputs": [],
      "name": "DEFAULT_ADMIN_ROLE",
      "outputs": [
        {
          "internalType": "bytes32",
          "name": "",
          "type": "bytes32"
        }
      ],
      "stateMutability": "view",
      "type": "function"
    },
    {
      "inputs": [],
      "name": "MORPHO_PRICE_SCALE",
      "outputs": [
        {
          "internalType": "uint256",
          "name": "",
          "type": "uint256"
        }
      ],
      "stateMutability": "view",
      "type": "function"
    },
    {
      "inputs": [],
      "name": "ORACLE_MANAGER_ROLE",
      "outputs": [
        {
          "internalType": "bytes32",
          "name": "",
          "type": "bytes32"
        }
      ],
      "stateMutability": "view",
      "type": "function"
    },
    {
      "inputs": [
        {
          "internalType": "address",
          "name": "",
          "type": "address"
        }
      ],
      "name": "assetToOracle",
      "outputs": [
        {
          "internalType": "contract IMorphoOracle",
          "name": "",
          "type": "address"
        }
      ],
      "stateMutability": "view",
      "type": "function"
    },
    {
      "inputs": [
        {
          "internalType": "address",
          "name": "asset",
          "type": "address"
        }
      ],
      "name": "getAssetPrice",
      "outputs": [
        {
          "internalType": "uint256",
          "name": "",
          "type": "uint256"
        }
      ],
      "stateMutability": "view",
      "type": "function"
    },
    {
      "inputs": [
        {
          "internalType": "address",
          "name": "asset",
          "type": "address"
        }
      ],
      "name": "getPriceInfo",
      "outputs": [
        {
          "internalType": "uint256",
          "name": "price",
          "type": "uint256"
        },
        {
          "internalType": "bool",
          "name": "isAlive",
          "type": "bool"
        }
      ],
      "stateMutability": "view",
      "type": "function"
    },
    {
      "inputs": [
        {
          "internalType": "bytes32",
          "name": "role",
          "type": "bytes32"
        }
      ],
      "name": "getRoleAdmin",
      "outputs": [
        {
          "internalType": "bytes32",
          "name": "",
          "type": "bytes32"
        }
      ],
      "stateMutability": "view",
      "type": "function"
    },
    {
      "inputs": [
        {
          "internalType": "bytes32",
          "name": "role",
          "type": "bytes32"
        },
        {
          "internalType": "address",
          "name": "account",
          "type": "address"
        }
      ],
      "name": "grantRole",
      "outputs": [],
      "stateMutability": "nonpayable",
      "type": "function"
    },
    {
      "inputs": [
        {
          "internalType": "bytes32",
          "name": "role",
          "type": "bytes32"
        },
        {
          "internalType": "address",
          "name": "account",
          "type": "address"
        }
      ],
      "name": "hasRole",
      "outputs": [
        {
          "internalType": "bool",
          "name": "",
          "type": "bool"
        }
      ],
      "stateMutability": "view",
      "type": "function"
    },
    {
      "inputs": [
        {
          "internalType": "address",
          "name": "asset",
          "type": "address"
        }
      ],
      "name": "removeOracle",
      "outputs": [],
      "stateMutability": "nonpayable",
      "type": "function"
    },
    {
      "inputs": [
        {
          "internalType": "bytes32",
          "name": "role",
          "type": "bytes32"
        },
        {
          "internalType": "address",
          "name": "callerConfirmation",
          "type": "address"
        }
      ],
      "name": "renounceRole",
      "outputs": [],
      "stateMutability": "nonpayable",
      "type": "function"
    },
    {
      "inputs": [
        {
          "internalType": "bytes32",
          "name": "role",
          "type": "bytes32"
        },
        {
          "internalType": "address",
          "name": "account",
          "type": "address"
        }
      ],
      "name": "revokeRole",
      "outputs": [],
      "stateMutability": "nonpayable",
      "type": "function"
    },
    {
      "inputs": [
        {
          "internalType": "address",
          "name": "asset",
          "type": "address"
        },
        {
          "internalType": "address",
          "name": "oracle",
          "type": "address"
        }
      ],
      "name": "setOracle",
      "outputs": [],
      "stateMutability": "nonpayable",
      "type": "function"
    },
    {
      "inputs": [
        {
          "internalType": "bytes4",
          "name": "interfaceId",
          "type": "bytes4"
        }
      ],
      "name": "supportsInterface",
      "outputs": [
        {
          "internalType": "bool",
          "name": "",
          "type": "bool"
        }
      ],
      "stateMutability": "view",
      "type": "function"
    }
  ],
  "transactionHash": "0x500522f0e018d5c140927a6b7d288bf3d1f6b536c8a2dd75defc372db84a59d2",
  "args": [
    "0x203A662b0BD271A6ed5a60EdFbd04bFce608FD36",
    "1000000000000000000000000000000000000"
  ],
  "numDeployments": 1,
  "solcInputHash": "54901e6dc858dc16fa0eb2368eb78fb4",
  "bytecode": "0x60c060405234801561001057600080fd5b50604051610aff380380610aff83398101604081905261002f9161012f565b6001600160a01b03821660805260a0819052818161004e600033610083565b506100797fced6982f480260bdd8ad5cb18ff2854f0306d78d904ad6cc107e8f3a0f526c1833610083565b5050505050610169565b6000828152602081815260408083206001600160a01b038516845290915281205460ff16610125576000838152602081815260408083206001600160a01b03861684529091529020805460ff191660011790556100dd3390565b6001600160a01b0316826001600160a01b0316847f2f8788117e7eff1d82e926ec794901d17c78024a50270940304540a733656f0d60405160405180910390a4506001610129565b5060005b92915050565b6000806040838503121561014257600080fd5b82516001600160a01b038116811461015957600080fd5b6020939093015192949293505050565b60805160a05161096a610195600039600081816101f501526106de015260006102a9015261096a6000f3fe608060405234801561001057600080fd5b50600436106101005760003560e01c80638edbf43611610097578063bfc69e1c11610066578063bfc69e1c1461026d578063d547741f14610294578063e19f4700146102a7578063fdc85fc4146102cd57600080fd5b80638edbf4361461021757806391d148541461023f578063a217fddf14610252578063b3596f071461025a57600080fd5b806336568abe116100d357806336568abe146101b4578063372853ed146101c75780635c38eb3a146101dd5780638c89b64f146101f057600080fd5b806301ffc9a714610105578063248a9ca31461012d5780632e00d2451461015e5780632f2ff15d1461019f575b600080fd5b610118610113366004610835565b6102e0565b60405190151581526020015b60405180910390f35b61015061013b36600461085f565b60009081526020819052604090206001015490565b604051908152602001610124565b61018761016c366004610894565b6001602052600090815260409020546001600160a01b031681565b6040516001600160a01b039091168152602001610124565b6101b26101ad3660046108af565b610317565b005b6101b26101c23660046108af565b610342565b6101506ec097ce7bc90715b34b9f100000000081565b6101b26101eb3660046108db565b61037a565b6101507f000000000000000000000000000000000000000000000000000000000000000081565b61022a610225366004610894565b6103fc565b60408051928352901515602083015201610124565b61011861024d3660046108af565b6104cd565b610150600081565b610150610268366004610894565b6104f6565b6101507fced6982f480260bdd8ad5cb18ff2854f0306d78d904ad6cc107e8f3a0f526c1881565b6101b26102a23660046108af565b61052d565b7f0000000000000000000000000000000000000000000000000000000000000000610187565b6101b26102db366004610894565b610552565b60006001600160e01b03198216637965db0b60e01b148061031157506301ffc9a760e01b6001600160e01b03198316145b92915050565b600082815260208190526040902060010154610332816105cc565b61033c83836105d9565b50505050565b6001600160a01b038116331461036b5760405163334bd91960e11b815260040160405180910390fd5b610375828261066b565b505050565b7fced6982f480260bdd8ad5cb18ff2854f0306d78d904ad6cc107e8f3a0f526c186103a4816105cc565b6001600160a01b0383811660008181526001602052604080822080546001600160a01b0319169487169485179055517fc1d3048301c0d23629a2532c8defa6d68f8e1a0e4157918769e9fb1b2eeb888e9190a3505050565b6001600160a01b0380821660009081526001602052604081205490918291168061044957604051634bf9754b60e11b81526001600160a01b03851660048201526024015b60405180910390fd5b806001600160a01b031663a035b1fe6040518163ffffffff1660e01b8152600401602060405180830381865afa9250505080156104a3575060408051601f3d908101601f191682019092526104a091810190610905565b60015b6104b45760009250600091506104c7565b6104bd816106d6565b9350600084119250505b50915091565b6000918252602082815260408084206001600160a01b0393909316845291905290205460ff1690565b6000806000610504846103fc565b91509150806105265760405163fa80e24f60e01b815260040160405180910390fd5b5092915050565b600082815260208190526040902060010154610548816105cc565b61033c838361066b565b7fced6982f480260bdd8ad5cb18ff2854f0306d78d904ad6cc107e8f3a0f526c1861057c816105cc565b6001600160a01b03821660008181526001602052604080822080546001600160a01b0319169055517f9c8e7d83025bef8a04c664b2f753f64b8814bdb7e27291d7e50935f18cc3c7129190a25050565b6105d68133610712565b50565b60006105e583836104cd565b610663576000838152602081815260408083206001600160a01b03861684529091529020805460ff1916600117905561061b3390565b6001600160a01b0316826001600160a01b0316847f2f8788117e7eff1d82e926ec794901d17c78024a50270940304540a733656f0d60405160405180910390a4506001610311565b506000610311565b600061067783836104cd565b15610663576000838152602081815260408083206001600160a01b0386168085529252808320805460ff1916905551339286917ff6391f5c32d9c69d2a47ea670b442974b53935d1edc7fd64eb21e047a839171b9190a4506001610311565b6000610311827f00000000000000000000000000000000000000000000000000000000000000006ec097ce7bc90715b34b9f100000000061074f565b61071c82826104cd565b61074b5760405163e2517d3f60e01b81526001600160a01b038216600482015260248101839052604401610440565b5050565b600080600061075e8686610805565b9150915081600003610783578381816107795761077961091e565b04925050506107fe565b81841161079a5761079a6003851502601118610823565b6000848688096000868103871696879004966002600389028118808a02820302808a02820302808a02820302808a02820302808a02820302808a02909103029181900381900460010185841190960395909502919093039390930492909217029150505b9392505050565b60008060001983850993909202808410938190039390930393915050565b634e487b71600052806020526024601cfd5b60006020828403121561084757600080fd5b81356001600160e01b0319811681146107fe57600080fd5b60006020828403121561087157600080fd5b5035919050565b80356001600160a01b038116811461088f57600080fd5b919050565b6000602082840312156108a657600080fd5b6107fe82610878565b600080604083850312156108c257600080fd5b823591506108d260208401610878565b90509250929050565b600080604083850312156108ee57600080fd5b6108f783610878565b91506108d260208401610878565b60006020828403121561091757600080fd5b5051919050565b634e487b7160e01b600052601260045260246000fdfea2646970667358221220261923ac29f1e146987170a1121cb267449a254c219a9bd2780e51d71a96465664736f6c63430008160033",
  "devdoc": {
    "details": "Implementation of BaseMorphoWrapper for MorphoChainlinkOracleV2 oracles",
    "errors": {
      "AccessControlBadConfirmation()": [
        {
          "details": "The caller of a function is not the expected one. NOTE: Don't confuse with {AccessControlUnauthorizedAccount}."
        }
      ],
      "AccessControlUnauthorizedAccount(address,bytes32)": [
        {
          "details": "The `account` is missing a role."
        }
      ]
    },
    "events": {
      "RoleAdminChanged(bytes32,bytes32,bytes32)": {
        "details": "Emitted when `newAdminRole` is set as ``role``'s admin role, replacing `previousAdminRole` `DEFAULT_ADMIN_ROLE` is the starting admin for all roles, despite {RoleAdminChanged} not being emitted to signal this."
      },
      "RoleGranted(bytes32,address,address)": {
        "details": "Emitted when `account` is granted `role`. `sender` is the account that originated the contract call. This account bears the admin role (for the granted role). Expected in cases where the role was granted using the internal {AccessControl-_grantRole}."
      },
      "RoleRevoked(bytes32,address,address)": {
        "details": "Emitted when `account` is revoked `role`. `sender` is the account that originated the contract call:   - if using `revokeRole`, it is the admin role bearer   - if using `renounceRole`, it is the role bearer (i.e. `account`)"
      }
    },
    "kind": "dev",
    "methods": {
      "BASE_CURRENCY()": {
        "returns": {
          "_0": "Returns the base currency address"
        }
      },
      "constructor": {
        "params": {
          "_baseCurrencyUnit": "The decimal precision of the base currency (e.g., 1e8 for USD)",
          "baseCurrency": "The address of the base currency (zero address for USD)"
        }
      },
      "getAssetPrice(address)": {
        "details": "This function reverts if the oracle is not set or if the price call fails",
        "params": {
          "asset": "The address of the asset to get the price for"
        },
        "returns": {
          "_0": "The current price of the asset in base currency units"
        }
      },
      "getPriceInfo(address)": {
        "details": "Morpho oracles compute prices on-demand, so they are always considered \"alive\"      unless the price() call reverts",
        "params": {
          "asset": "The address of the asset to get the price for"
        },
        "returns": {
          "isAlive": "Whether the price feed is considered active (always true for Morpho oracles)",
          "price": "The price of the asset in base currency units"
        }
      },
      "getRoleAdmin(bytes32)": {
        "details": "Returns the admin role that controls `role`. See {grantRole} and {revokeRole}. To change a role's admin, use {_setRoleAdmin}."
      },
      "grantRole(bytes32,address)": {
        "details": "Grants `role` to `account`. If `account` had not been already granted `role`, emits a {RoleGranted} event. Requirements: - the caller must have ``role``'s admin role. May emit a {RoleGranted} event."
      },
      "hasRole(bytes32,address)": {
        "details": "Returns `true` if `account` has been granted `role`."
      },
      "removeOracle(address)": {
        "params": {
          "asset": "The address of the asset"
        }
      },
      "renounceRole(bytes32,address)": {
        "details": "Revokes `role` from the calling account. Roles are often managed via {grantRole} and {revokeRole}: this function's purpose is to provide a mechanism for accounts to lose their privileges if they are compromised (such as when a trusted device is misplaced). If the calling account had been revoked `role`, emits a {RoleRevoked} event. Requirements: - the caller must be `callerConfirmation`. May emit a {RoleRevoked} event."
      },
      "revokeRole(bytes32,address)": {
        "details": "Revokes `role` from `account`. If `account` had been granted `role`, emits a {RoleRevoked} event. Requirements: - the caller must have ``role``'s admin role. May emit a {RoleRevoked} event."
      },
      "setOracle(address,address)": {
        "params": {
          "asset": "The address of the asset",
          "oracle": "The address of the MorphoChainlinkOracleV2 contract for this asset"
        }
      },
      "supportsInterface(bytes4)": {
        "details": "Returns true if this contract implements the interface defined by `interfaceId`. See the corresponding https://eips.ethereum.org/EIPS/eip-165#how-interfaces-are-identified[ERC section] to learn more about how these ids are created. This function call must use less than 30 000 gas."
      }
    },
    "title": "MorphoChainlinkOracleV2Wrapper",
    "version": 1
  },
  "userdoc": {
    "errors": {
      "OracleNotSet(address)": [
        {
          "notice": "Thrown when no oracle is configured for the requested asset"
        }
      ],
      "OraclePriceError()": [
        {
          "notice": "Thrown when oracle price calculation fails"
        }
      ]
    },
    "events": {
      "OracleRemoved(address)": {
        "notice": "Emitted when an oracle is removed for an asset"
      },
      "OracleSet(address,address)": {
        "notice": "Emitted when a new oracle is set for an asset"
      }
    },
    "kind": "user",
    "methods": {
      "BASE_CURRENCY()": {
        "notice": "Returns the base currency address"
      },
      "BASE_CURRENCY_UNIT()": {
        "notice": "Base currency unit (e.g., 1e8 for USD)"
      },
      "MORPHO_PRICE_SCALE()": {
        "notice": "Morpho Blue oracle price scaling factor (1e36)"
      },
      "ORACLE_MANAGER_ROLE()": {
        "notice": "Role for managing oracle configurations"
      },
      "assetToOracle(address)": {
        "notice": "Mapping from asset address to corresponding MorphoChainlinkOracleV2 contract"
      },
      "constructor": {
        "notice": "Constructor to initialize the MorphoChainlinkOracleV2Wrapper"
      },
      "getAssetPrice(address)": {
        "notice": "Gets the current price of an asset"
      },
      "getPriceInfo(address)": {
        "notice": "Gets the price information for an asset"
      },
      "removeOracle(address)": {
        "notice": "Removes the oracle configuration for a specific asset"
      },
      "setOracle(address,address)": {
        "notice": "Sets the MorphoChainlinkOracleV2 contract for a specific asset"
      }
    },
    "notice": "This wrapper allows integration of MorphoChainlinkOracleV2 oracles with the OracleAggregator",
    "version": 1
  },
  "storageLayout": {
    "storage": [
      {
        "astId": 27,
        "contract": "contracts/oracle_aggregator/wrapper/MorphoChainlinkOracleV2Wrapper.sol:MorphoChainlinkOracleV2Wrapper",
        "label": "_roles",
        "offset": 0,
        "slot": "0",
        "type": "t_mapping(t_bytes32,t_struct(RoleData)22_storage)"
      },
      {
        "astId": 4068,
        "contract": "contracts/oracle_aggregator/wrapper/MorphoChainlinkOracleV2Wrapper.sol:MorphoChainlinkOracleV2Wrapper",
        "label": "assetToOracle",
        "offset": 0,
        "slot": "1",
        "type": "t_mapping(t_address,t_contract(IMorphoOracle)4054)"
      }
    ],
    "types": {
      "t_address": {
        "encoding": "inplace",
        "label": "address",
        "numberOfBytes": "20"
      },
      "t_bool": {
        "encoding": "inplace",
        "label": "bool",
        "numberOfBytes": "1"
      },
      "t_bytes32": {
        "encoding": "inplace",
        "label": "bytes32",
        "numberOfBytes": "32"
      },
      "t_contract(IMorphoOracle)4054": {
        "encoding": "inplace",
        "label": "contract IMorphoOracle",
        "numberOfBytes": "20"
      },
      "t_mapping(t_address,t_bool)": {
        "encoding": "mapping",
        "key": "t_address",
        "label": "mapping(address => bool)",
        "numberOfBytes": "32",
        "value": "t_bool"
      },
      "t_mapping(t_address,t_contract(IMorphoOracle)4054)": {
        "encoding": "mapping",
        "key": "t_address",
        "label": "mapping(address => contract IMorphoOracle)",
        "numberOfBytes": "32",
        "value": "t_contract(IMorphoOracle)4054"
      },
      "t_mapping(t_bytes32,t_struct(RoleData)22_storage)": {
        "encoding": "mapping",
        "key": "t_bytes32",
        "label": "mapping(bytes32 => struct AccessControl.RoleData)",
        "numberOfBytes": "32",
        "value": "t_struct(RoleData)22_storage"
      },
      "t_struct(RoleData)22_storage": {
        "encoding": "inplace",
        "label": "struct AccessControl.RoleData",
        "members": [
          {
            "astId": 19,
            "contract": "contracts/oracle_aggregator/wrapper/MorphoChainlinkOracleV2Wrapper.sol:MorphoChainlinkOracleV2Wrapper",
            "label": "hasRole",
            "offset": 0,
            "slot": "0",
            "type": "t_mapping(t_address,t_bool)"
          },
          {
            "astId": 21,
            "contract": "contracts/oracle_aggregator/wrapper/MorphoChainlinkOracleV2Wrapper.sol:MorphoChainlinkOracleV2Wrapper",
            "label": "adminRole",
            "offset": 0,
            "slot": "1",
            "type": "t_bytes32"
          }
        ],
        "numberOfBytes": "64"
      }
    }
  }
}