{
  "address": "0xA9E6d19d5B90B6fa4D702e4C0aF5D116fF1e741E",
  "abi": [
    {
      "inputs": [],
      "stateMutability": "nonpayable",
      "type": "constructor"
    },
    {
      "inputs": [],
      "name": "decimals",
      "outputs": [
        {
          "internalType": "uint8",
          "name": "",
          "type": "uint8"
        }
      ],
      "stateMutability": "pure",
      "type": "function"
    },
    {
      "inputs": [],
      "name": "latestRoundData",
      "outputs": [
        {
          "internalType": "uint80",
          "name": "roundId",
          "type": "uint80"
        },
        {
          "internalType": "int256",
          "name": "answer",
          "type": "int256"
        },
        {
          "internalType": "uint256",
          "name": "startedAt",
          "type": "uint256"
        },
        {
          "internalType": "uint256",
          "name": "updatedAt",
          "type": "uint256"
        },
        {
          "internalType": "uint80",
          "name": "answeredInRound",
          "type": "uint80"
        }
      ],
      "stateMutability": "view",
      "type": "function"
    },
    {
      "inputs": [
        {
          "internalType": "int256",
          "name": "_price",
          "type": "int256"
        }
      ],
      "name": "setMock",
      "outputs": [],
      "stateMutability": "nonpayable",
      "type": "function"
    }
  ],
  "transactionHash": "0x5908b5a1acf71d63278e6c68148b4811cf21a78e92cbb12c5a66d7e19d78bd16",
  "args": [],
  "numDeployments": 1,
  "solcInputHash": "82f06a7622047c41cc062e7d25c1f68c",
  "bytecode": "0x608060405234801561001057600080fd5b50600180546001600160501b0319168117905561016f806100326000396000f3fe608060405234801561001057600080fd5b50600436106100415760003560e01c8063313ce5671461004657806333f3998b1461005a578063feaf968c1461006f575b600080fd5b604051600881526020015b60405180910390f35b61006d6100683660046100ec565b6100a8565b005b600154600054604080516001600160501b039093168084526020840192909252429083018190526060830152608082015260a001610051565b6000818155600180546001600160501b0316916100c483610105565b91906101000a8154816001600160501b0302191690836001600160501b031602179055505050565b6000602082840312156100fe57600080fd5b5035919050565b60006001600160501b0380831681810361012f57634e487b7160e01b600052601160045260246000fd5b600101939250505056fea26469706673582212200e0d8d9d934f368023993287130b1115bc8c82a0a57fc2c29c63dfe621f706f664736f6c63430008160033",
  "devdoc": {
    "kind": "dev",
    "methods": {},
    "version": 1
  },
  "userdoc": {
    "kind": "user",
    "methods": {},
    "version": 1
  },
  "storageLayout": {
    "storage": [
      {
        "astId": 73453,
        "contract": "contracts/testing/oracle/MockRedstoneChainlinkOracleAlwaysAlive.sol:MockRedstoneChainlinkOracleAlwaysAlive",
        "label": "mockPrice",
        "offset": 0,
        "slot": "0",
        "type": "t_int256"
      },
      {
        "astId": 73455,
        "contract": "contracts/testing/oracle/MockRedstoneChainlinkOracleAlwaysAlive.sol:MockRedstoneChainlinkOracleAlwaysAlive",
        "label": "mockRoundId",
        "offset": 0,
        "slot": "1",
        "type": "t_uint80"
      }
    ],
    "types": {
      "t_int256": {
        "encoding": "inplace",
        "label": "int256",
        "numberOfBytes": "32"
      },
      "t_uint80": {
        "encoding": "inplace",
        "label": "uint80",
        "numberOfBytes": "10"
      }
    }
  }
}